{
  "abi": [
    {
      "inputs": [
        {
          "internalType": "uint256",
          "name": "gameId",
          "type": "uint256"
        }
      ],
      "name": "addGame",
      "outputs": [],
      "stateMutability": "nonpayable",
      "type": "function"
    },
    {
      "inputs": [],
      "name": "getGames",
      "outputs": [
        {
          "internalType": "uint256[]",
          "name": "",
          "type": "uint256[]"
        }
      ],
      "stateMutability": "view",
      "type": "function"
    },
    {
      "inputs": [],
      "name": "getName",
      "outputs": [
        {
          "internalType": "string",
          "name": "",
          "type": "string"
        }
      ],
      "stateMutability": "view",
      "type": "function"
    },
    {
      "inputs": [
        {
          "internalType": "address",
          "name": "playerAddress",
          "type": "address"
        }
      ],
      "name": "getPlayer",
      "outputs": [
        {
          "components": [
            {
              "internalType": "string",
              "name": "name",
              "type": "string"
            },
            {
              "internalType": "uint256[]",
              "name": "games",
              "type": "uint256[]"
            }
          ],
          "internalType": "struct PlayerRegistry.Player",
          "name": "",
          "type": "tuple"
        }
      ],
      "stateMutability": "view",
      "type": "function"
    },
    {
      "inputs": [
        {
          "internalType": "uint256",
          "name": "offset",
          "type": "uint256"
        },
        {
          "internalType": "uint256",
          "name": "limit",
          "type": "uint256"
        }
      ],
      "name": "getPlayers",
      "outputs": [
        {
          "components": [
            {
              "internalType": "string",
              "name": "name",
              "type": "string"
            },
            {
              "internalType": "uint256[]",
              "name": "games",
              "type": "uint256[]"
            }
          ],
          "internalType": "struct PlayerRegistry.Player[]",
          "name": "",
          "type": "tuple[]"
        }
      ],
      "stateMutability": "view",
      "type": "function"
    },
    {
      "inputs": [],
      "name": "isRegistered",
      "outputs": [
        {
          "internalType": "bool",
          "name": "",
          "type": "bool"
        }
      ],
      "stateMutability": "view",
      "type": "function"
    },
    {
      "inputs": [],
      "name": "playerCount",
      "outputs": [
        {
          "internalType": "uint256",
          "name": "",
          "type": "uint256"
        }
      ],
      "stateMutability": "view",
      "type": "function"
    },
    {
      "inputs": [
        {
          "internalType": "address",
          "name": "",
          "type": "address"
        }
      ],
      "name": "playerIds",
      "outputs": [
        {
          "internalType": "uint256",
          "name": "",
          "type": "uint256"
        }
      ],
      "stateMutability": "view",
      "type": "function"
    },
    {
      "inputs": [
        {
          "internalType": "uint256",
          "name": "",
          "type": "uint256"
        }
      ],
      "name": "players",
      "outputs": [
        {
          "internalType": "string",
          "name": "name",
          "type": "string"
        }
      ],
      "stateMutability": "view",
      "type": "function"
    },
    {
      "inputs": [
        {
          "internalType": "string",
          "name": "name",
          "type": "string"
        }
      ],
      "name": "register",
      "outputs": [],
      "stateMutability": "nonpayable",
      "type": "function"
    },
    {
      "inputs": [
        {
          "internalType": "string",
          "name": "name",
          "type": "string"
        }
      ],
      "name": "setName",
      "outputs": [],
      "stateMutability": "nonpayable",
      "type": "function"
    }
  ],
  "bytecode": {
    "object": "0x608060405234801561001057600080fd5b50610d3e806100206000396000f3fe608060405234801561001057600080fd5b50600436106100a95760003560e01c80635c12cd4b116100715780635c12cd4b14610137578063c04c594714610157578063c47f00271461016c578063d36ec0611461017f578063f2c298be1461019f578063f71d96cb146101b257600080fd5b80630d2dce22146100ae57806317d7de7c146100d757806322366844146100ec578063302bcc571461010b57806349eaa7b814610122575b600080fd5b6100c16100bc366004610996565b6101c5565b6040516100ce9190610a66565b60405180910390f35b6100df6103c2565b6040516100ce9190610ac8565b33600090815260208181526040918290205491519115158252016100ce565b61011460025481565b6040519081526020016100ce565b610135610130366004610ae2565b61049a565b005b61014a610145366004610afb565b6104f4565b6040516100ce9190610b24565b61015f610653565b6040516100ce9190610b37565b61013561017a366004610b91565b6106ed565b61011461018d366004610afb565b60006020819052908152604090205481565b6101356101ad366004610b91565b610747565b6100df6101c0366004610ae2565b610825565b33600090815260208190526040812054606091036101fe5760405162461bcd60e51b81526004016101f590610c42565b60405180910390fd5b60008267ffffffffffffffff81111561021957610219610b7b565b60405190808252806020026020018201604052801561025e57816020015b60408051808201909152606080825260208201528152602001906001900390816102375790505b5090508260000361026e57606492505b60005b838110156103ba57600160006102878784610c87565b81526020019081526020016000206040518060400160405290816000820180546102b090610c9f565b80601f01602080910402602001604051908101604052809291908181526020018280546102dc90610c9f565b80156103295780601f106102fe57610100808354040283529160200191610329565b820191906000526020600020905b81548152906001019060200180831161030c57829003601f168201915b505050505081526020016001820180548060200260200160405190810160405280929190818152602001828054801561038157602002820191906000526020600020905b81548152602001906001019080831161036d575b50505050508152505082828151811061039c5761039c610cd9565b602002602001018190525080806103b290610cef565b915050610271565b509392505050565b33600090815260208190526040812054606091036103f25760405162461bcd60e51b81526004016101f590610c42565b3360009081526020818152604080832054835260019091529020805461041790610c9f565b80601f016020809104026020016040519081016040528092919081815260200182805461044390610c9f565b80156104905780601f1061046557610100808354040283529160200191610490565b820191906000526020600020905b81548152906001019060200180831161047357829003601f168201915b5050505050905090565b3360009081526020819052604081205490036104c85760405162461bcd60e51b81526004016101f590610c42565b336000908152602081815260408083205483526001808352908320810180549182018155835291200155565b60408051808201909152606080825260208201523360009081526020819052604081205490036105365760405162461bcd60e51b81526004016101f590610c42565b6001600160a01b038216600090815260208181526040808320548352600190915290819020815180830190925280548290829061057290610c9f565b80601f016020809104026020016040519081016040528092919081815260200182805461059e90610c9f565b80156105eb5780601f106105c0576101008083540402835291602001916105eb565b820191906000526020600020905b8154815290600101906020018083116105ce57829003601f168201915b505050505081526020016001820180548060200260200160405190810160405280929190818152602001828054801561064357602002820191906000526020600020905b81548152602001906001019080831161062f575b5050505050815250509050919050565b33600090815260208190526040812054606091036106835760405162461bcd60e51b81526004016101f590610c42565b336000908152602081815260408083205483526001808352928190209092018054835181840281018401909452808452909183018282801561049057602002820191906000526020600020905b8154815260200190600101908083116106d0575050505050905090565b33600090815260208190526040812054900361071b5760405162461bcd60e51b81526004016101f590610c42565b33600090815260208181526040808320548352600182529091208251610743928401906108c3565b5050565b33600090815260208190526040902054156107a45760405162461bcd60e51b815260206004820152601960248201527f506c6179657220616c726561647920726567697374657265640000000000000060448201526064016101f5565b60025433600090815260208181526040808320849055805180820182528581528151848152808401835281840152938352600182529091208251805191926107f1928492909101906108c3565b50602082810151805161080a9260018501920190610947565b5050600280549150600061081d83610cef565b919050555050565b60016020526000908152604090208054819061084090610c9f565b80601f016020809104026020016040519081016040528092919081815260200182805461086c90610c9f565b80156108b95780601f1061088e576101008083540402835291602001916108b9565b820191906000526020600020905b81548152906001019060200180831161089c57829003601f168201915b5050505050905081565b8280546108cf90610c9f565b90600052602060002090601f0160209004810192826108f15760008555610937565b82601f1061090a57805160ff1916838001178555610937565b82800160010185558215610937579182015b8281111561093757825182559160200191906001019061091c565b50610943929150610981565b5090565b828054828255906000526020600020908101928215610937579160200282018281111561093757825182559160200191906001019061091c565b5b808211156109435760008155600101610982565b600080604083850312156109a957600080fd5b50508035926020909101359150565b6000815180845260005b818110156109de576020818501810151868301820152016109c2565b818111156109f0576000602083870101525b50601f01601f19169290920160200192915050565b6000815160408452610a1a60408501826109b8565b60208481015186830387830152805180845290820193509091600091908301905b80831015610a5b5784518252938301936001929092019190830190610a3b565b509695505050505050565b6000602080830181845280855180835260408601915060408160051b870101925083870160005b82811015610abb57603f19888603018452610aa9858351610a05565b94509285019290850190600101610a8d565b5092979650505050505050565b602081526000610adb60208301846109b8565b9392505050565b600060208284031215610af457600080fd5b5035919050565b600060208284031215610b0d57600080fd5b81356001600160a01b0381168114610adb57600080fd5b602081526000610adb6020830184610a05565b6020808252825182820181905260009190848201906040850190845b81811015610b6f57835183529284019291840191600101610b53565b50909695505050505050565b634e487b7160e01b600052604160045260246000fd5b600060208284031215610ba357600080fd5b813567ffffffffffffffff80821115610bbb57600080fd5b818401915084601f830112610bcf57600080fd5b813581811115610be157610be1610b7b565b604051601f8201601f19908116603f01168101908382118183101715610c0957610c09610b7b565b81604052828152876020848701011115610c2257600080fd5b826020860160208301376000928101602001929092525095945050505050565b602080825260159082015274141b185e595c881b9bdd081c9959da5cdd195c9959605a1b604082015260600190565b634e487b7160e01b600052601160045260246000fd5b60008219821115610c9a57610c9a610c71565b500190565b600181811c90821680610cb357607f821691505b602082108103610cd357634e487b7160e01b600052602260045260246000fd5b50919050565b634e487b7160e01b600052603260045260246000fd5b600060018201610d0157610d01610c71565b506001019056fea26469706673582212204c3853ffade4fcaf69b0746d14f352c6ba77687c921099571fe85223ef3ec32864736f6c634300080d0033",
    "linkReferences": {}
  },
  "methodIdentifiers": {
    "addGame(uint256)": "49eaa7b8",
    "getGames()": "c04c5947",
    "getName()": "17d7de7c",
    "getPlayer(address)": "5c12cd4b",
    "getPlayers(uint256,uint256)": "0d2dce22",
    "isRegistered()": "22366844",
    "playerCount()": "302bcc57",
    "playerIds(address)": "d36ec061",
    "players(uint256)": "f71d96cb",
    "register(string)": "f2c298be",
    "setName(string)": "c47f0027"
  },
  "id": 0
}