{
  "abi": [
    {
      "inputs": [],
      "stateMutability": "nonpayable",
      "type": "constructor"
    },
    {
      "inputs": [
        {
          "internalType": "uint256",
          "name": "gameId",
          "type": "uint256"
        }
      ],
      "name": "addGame",
      "outputs": [],
      "stateMutability": "nonpayable",
      "type": "function"
    },
    {
      "inputs": [],
      "name": "getGames",
      "outputs": [
        {
          "internalType": "uint256[]",
          "name": "",
          "type": "uint256[]"
        }
      ],
      "stateMutability": "view",
      "type": "function"
    },
    {
      "inputs": [],
      "name": "getId",
      "outputs": [
        {
          "internalType": "uint256",
          "name": "",
          "type": "uint256"
        }
      ],
      "stateMutability": "view",
      "type": "function"
    },
    {
      "inputs": [],
      "name": "getName",
      "outputs": [
        {
          "internalType": "string",
          "name": "",
          "type": "string"
        }
      ],
      "stateMutability": "view",
      "type": "function"
    },
    {
      "inputs": [
        {
          "internalType": "address",
          "name": "playerAddress",
          "type": "address"
        }
      ],
      "name": "getPlayer",
      "outputs": [
        {
          "components": [
            {
              "internalType": "uint256",
              "name": "id",
              "type": "uint256"
            },
            {
              "internalType": "string",
              "name": "name",
              "type": "string"
            },
            {
              "internalType": "address",
              "name": "owner",
              "type": "address"
            },
            {
              "internalType": "uint256[]",
              "name": "games",
              "type": "uint256[]"
            }
          ],
          "internalType": "struct PlayerRegistry.Player",
          "name": "",
          "type": "tuple"
        }
      ],
      "stateMutability": "view",
      "type": "function"
    },
    {
      "inputs": [
        {
          "internalType": "uint256",
          "name": "offset",
          "type": "uint256"
        },
        {
          "internalType": "uint256",
          "name": "limit",
          "type": "uint256"
        }
      ],
      "name": "getPlayers",
      "outputs": [
        {
          "components": [
            {
              "internalType": "uint256",
              "name": "id",
              "type": "uint256"
            },
            {
              "internalType": "string",
              "name": "name",
              "type": "string"
            },
            {
              "internalType": "address",
              "name": "owner",
              "type": "address"
            },
            {
              "internalType": "uint256[]",
              "name": "games",
              "type": "uint256[]"
            }
          ],
          "internalType": "struct PlayerRegistry.Player[]",
          "name": "",
          "type": "tuple[]"
        }
      ],
      "stateMutability": "view",
      "type": "function"
    },
    {
      "inputs": [],
      "name": "isRegistered",
      "outputs": [
        {
          "internalType": "bool",
          "name": "",
          "type": "bool"
        }
      ],
      "stateMutability": "view",
      "type": "function"
    },
    {
      "inputs": [],
      "name": "playerCount",
      "outputs": [
        {
          "internalType": "uint256",
          "name": "",
          "type": "uint256"
        }
      ],
      "stateMutability": "view",
      "type": "function"
    },
    {
      "inputs": [
        {
          "internalType": "address",
          "name": "",
          "type": "address"
        }
      ],
      "name": "playerIds",
      "outputs": [
        {
          "internalType": "uint256",
          "name": "",
          "type": "uint256"
        }
      ],
      "stateMutability": "view",
      "type": "function"
    },
    {
      "inputs": [
        {
          "internalType": "uint256",
          "name": "",
          "type": "uint256"
        }
      ],
      "name": "players",
      "outputs": [
        {
          "internalType": "uint256",
          "name": "id",
          "type": "uint256"
        },
        {
          "internalType": "string",
          "name": "name",
          "type": "string"
        },
        {
          "internalType": "address",
          "name": "owner",
          "type": "address"
        }
      ],
      "stateMutability": "view",
      "type": "function"
    },
    {
      "inputs": [
        {
          "internalType": "string",
          "name": "name",
          "type": "string"
        }
      ],
      "name": "register",
      "outputs": [
        {
          "internalType": "uint256",
          "name": "",
          "type": "uint256"
        }
      ],
      "stateMutability": "nonpayable",
      "type": "function"
    },
    {
      "inputs": [
        {
          "internalType": "string",
          "name": "name",
          "type": "string"
        }
      ],
      "name": "setName",
      "outputs": [],
      "stateMutability": "nonpayable",
      "type": "function"
    }
  ],
  "bytecode": {
    "object": "0x60806040523480156200001157600080fd5b5060408051808201909152600581526437bbb732b960d91b6020820152620000399062000040565b5062000309565b3360009081526020819052604081205415620000a35760405162461bcd60e51b815260206004820152601960248201527f506c6179657220616c726561647920726567697374657265640000000000000060448201526064015b60405180910390fd5b6000825111620000f65760405162461bcd60e51b815260206004820152601460248201527f4e616d652063616e6e6f7420626520656d70747900000000000000000000000060448201526064016200009a565b6002805490819060006200010a83620002a5565b90915550503360008181526020818152604080832085905580516080810182528581528083018881528183019590955281518481528084018352606082015285845260018084529190932083518155935180519394936200017493928501929190910190620001c2565b5060408201516002820180546001600160a01b0319166001600160a01b0390921691909117905560608201518051620001b891600384019160209091019062000251565b5091949350505050565b828054620001d090620002cd565b90600052602060002090601f016020900481019282620001f457600085556200023f565b82601f106200020f57805160ff19168380011785556200023f565b828001600101855582156200023f579182015b828111156200023f57825182559160200191906001019062000222565b506200024d9291506200028e565b5090565b8280548282559060005260206000209081019282156200023f57916020028201828111156200023f57825182559160200191906001019062000222565b5b808211156200024d57600081556001016200028f565b600060018201620002c657634e487b7160e01b600052601160045260246000fd5b5060010190565b600181811c90821680620002e257607f821691505b6020821081036200030357634e487b7160e01b600052602260045260246000fd5b50919050565b610f9b80620003196000396000f3fe608060405234801561001057600080fd5b50600436106100b45760003560e01c80635d1ca631116100715780635d1ca63114610162578063c04c59471461016a578063c47f00271461017f578063d36ec06114610192578063f2c298be146101b2578063f71d96cb146101c557600080fd5b80630d2dce22146100b957806317d7de7c146100e257806322366844146100f7578063302bcc571461011657806349eaa7b81461012d5780635c12cd4b14610142575b600080fd5b6100cc6100c7366004610b8e565b6101e7565b6040516100d99190610c7b565b60405180910390f35b6100ea610443565b6040516100d99190610cdd565b33600090815260208181526040918290205491519115158252016100d9565b61011f60025481565b6040519081526020016100d9565b61014061013b366004610cf7565b610527565b005b610155610150366004610d10565b610582565b6040516100d99190610d39565b61011f61071b565b61017261075d565b6040516100d99190610d4c565b61014061018d366004610da6565b6107f6565b61011f6101a0366004610d10565b60006020819052908152604090205481565b61011f6101c0366004610da6565b61089d565b6101d86101d3366004610cf7565b610a08565b6040516100d993929190610e57565b6060826002546101f79190610e9e565b6102018484610e9e565b111561021c57826002546102159190610e9e565b9150610252565b81600003610252576064836002546102349190610e9e565b1161024c57826002546102479190610e9e565b61024f565b60645b91505b60008267ffffffffffffffff81111561026d5761026d610d90565b6040519080825280602002602001820160405280156102d257816020015b6102bf6040518060800160405280600081526020016060815260200160006001600160a01b03168152602001606081525090565b81526020019060019003908161028b5790505b50905060005b8381101561043b57600160006102ee8784610eb5565b81526020019081526020016000206040518060800160405290816000820154815260200160018201805461032190610ecd565b80601f016020809104026020016040519081016040528092919081815260200182805461034d90610ecd565b801561039a5780601f1061036f5761010080835404028352916020019161039a565b820191906000526020600020905b81548152906001019060200180831161037d57829003601f168201915b505050918352505060028201546001600160a01b0316602080830191909152600383018054604080518285028101850182528281529401939283018282801561040257602002820191906000526020600020905b8154815260200190600101908083116103ee575b50505050508152505082828151811061041d5761041d610f07565b6020026020010181905250808061043390610f1d565b9150506102d8565b509392505050565b336000908152602081905260408120546060910361047c5760405162461bcd60e51b815260040161047390610f36565b60405180910390fd5b336000908152602081815260408083205483526001918290529091200180546104a490610ecd565b80601f01602080910402602001604051908101604052809291908181526020018280546104d090610ecd565b801561051d5780601f106104f25761010080835404028352916020019161051d565b820191906000526020600020905b81548152906001019060200180831161050057829003601f168201915b5050505050905090565b3360009081526020819052604081205490036105555760405162461bcd60e51b815260040161047390610f36565b33600090815260208181526040808320548352600180835290832060030180549182018155835291200155565b6105b66040518060800160405280600081526020016060815260200160006001600160a01b03168152602001606081525090565b3360009081526020819052604081205490036105e45760405162461bcd60e51b815260040161047390610f36565b6001600160a01b03821660009081526020818152604080832054835260018083529281902081516080810190925280548252928301805491939284019161062a90610ecd565b80601f016020809104026020016040519081016040528092919081815260200182805461065690610ecd565b80156106a35780601f10610678576101008083540402835291602001916106a3565b820191906000526020600020905b81548152906001019060200180831161068657829003601f168201915b505050918352505060028201546001600160a01b0316602080830191909152600383018054604080518285028101850182528281529401939283018282801561070b57602002820191906000526020600020905b8154815260200190600101908083116106f7575b5050505050815250509050919050565b3360009081526020819052604081205481036107495760405162461bcd60e51b815260040161047390610f36565b503360009081526020819052604090205490565b336000908152602081905260408120546060910361078d5760405162461bcd60e51b815260040161047390610f36565b3360009081526020818152604080832054835260018252918290206003018054835181840281018401909452808452909183018282801561051d57602002820191906000526020600020905b8154815260200190600101908083116107d9575050505050905090565b3360009081526020819052604081205490036108245760405162461bcd60e51b815260040161047390610f36565b600081511161086c5760405162461bcd60e51b81526020600482015260146024820152734e616d652063616e6e6f7420626520656d70747960601b6044820152606401610473565b33600090815260208181526040808320548352600180835292208351610899939190910191840190610abb565b5050565b33600090815260208190526040812054156108fa5760405162461bcd60e51b815260206004820152601960248201527f506c6179657220616c72656164792072656769737465726564000000000000006044820152606401610473565b60008251116109425760405162461bcd60e51b81526020600482015260146024820152734e616d652063616e6e6f7420626520656d70747960601b6044820152606401610473565b60028054908190600061095483610f1d565b90915550503360008181526020818152604080832085905580516080810182528581528083018881528183019590955281518481528084018352606082015285845260018084529190932083518155935180519394936109bc93928501929190910190610abb565b5060408201516002820180546001600160a01b0319166001600160a01b03909216919091179055606082015180516109fe916003840191602090910190610b3f565b5091949350505050565b600160208190526000918252604090912080549181018054610a2990610ecd565b80601f0160208091040260200160405190810160405280929190818152602001828054610a5590610ecd565b8015610aa25780601f10610a7757610100808354040283529160200191610aa2565b820191906000526020600020905b815481529060010190602001808311610a8557829003601f168201915b505050600290930154919250506001600160a01b031683565b828054610ac790610ecd565b90600052602060002090601f016020900481019282610ae95760008555610b2f565b82601f10610b0257805160ff1916838001178555610b2f565b82800160010185558215610b2f579182015b82811115610b2f578251825591602001919060010190610b14565b50610b3b929150610b79565b5090565b828054828255906000526020600020908101928215610b2f5791602002820182811115610b2f578251825591602001919060010190610b14565b5b80821115610b3b5760008155600101610b7a565b60008060408385031215610ba157600080fd5b50508035926020909101359150565b6000815180845260005b81811015610bd657602081850181015186830182015201610bba565b81811115610be8576000602083870101525b50601f01601f19169290920160200192915050565b805182526000602080830151608082860152610c1c6080860182610bb0565b6040858101516001600160a01b03169087015260608086015187830391880191909152805180835290840192506000918401905b80831015610c705783518252928401926001929092019190840190610c50565b509695505050505050565b6000602080830181845280855180835260408601915060408160051b870101925083870160005b82811015610cd057603f19888603018452610cbe858351610bfd565b94509285019290850190600101610ca2565b5092979650505050505050565b602081526000610cf06020830184610bb0565b9392505050565b600060208284031215610d0957600080fd5b5035919050565b600060208284031215610d2257600080fd5b81356001600160a01b0381168114610cf057600080fd5b602081526000610cf06020830184610bfd565b6020808252825182820181905260009190848201906040850190845b81811015610d8457835183529284019291840191600101610d68565b50909695505050505050565b634e487b7160e01b600052604160045260246000fd5b600060208284031215610db857600080fd5b813567ffffffffffffffff80821115610dd057600080fd5b818401915084601f830112610de457600080fd5b813581811115610df657610df6610d90565b604051601f8201601f19908116603f01168101908382118183101715610e1e57610e1e610d90565b81604052828152876020848701011115610e3757600080fd5b826020860160208301376000928101602001929092525095945050505050565b838152606060208201526000610e706060830185610bb0565b905060018060a01b0383166040830152949350505050565b634e487b7160e01b600052601160045260246000fd5b600082821015610eb057610eb0610e88565b500390565b60008219821115610ec857610ec8610e88565b500190565b600181811c90821680610ee157607f821691505b602082108103610f0157634e487b7160e01b600052602260045260246000fd5b50919050565b634e487b7160e01b600052603260045260246000fd5b600060018201610f2f57610f2f610e88565b5060010190565b602080825260159082015274141b185e595c881b9bdd081c9959da5cdd195c9959605a1b60408201526060019056fea264697066735822122039bd67f6e0a20ac64cc5f65fef93510f8f3bc2a5c8a81ff3ce0b7e234ea467d664736f6c634300080d0033",
    "linkReferences": {}
  },
  "methodIdentifiers": {
    "addGame(uint256)": "49eaa7b8",
    "getGames()": "c04c5947",
    "getId()": "5d1ca631",
    "getName()": "17d7de7c",
    "getPlayer(address)": "5c12cd4b",
    "getPlayers(uint256,uint256)": "0d2dce22",
    "isRegistered()": "22366844",
    "playerCount()": "302bcc57",
    "playerIds(address)": "d36ec061",
    "players(uint256)": "f71d96cb",
    "register(string)": "f2c298be",
    "setName(string)": "c47f0027"
  },
  "id": 14
}